{
  "contractName": "ICanHasCheezburgerToken",
  "abi": [
    {
      "inputs": [
        {
          "internalType": "uint256",
          "name": "cap",
          "type": "uint256"
        }
      ],
      "stateMutability": "nonpayable",
      "type": "constructor"
    },
    {
      "anonymous": false,
      "inputs": [
        {
          "indexed": true,
          "internalType": "address",
          "name": "owner",
          "type": "address"
        },
        {
          "indexed": true,
          "internalType": "address",
          "name": "spender",
          "type": "address"
        },
        {
          "indexed": false,
          "internalType": "uint256",
          "name": "value",
          "type": "uint256"
        }
      ],
      "name": "Approval",
      "type": "event"
    },
    {
      "anonymous": false,
      "inputs": [
        {
          "indexed": true,
          "internalType": "address",
          "name": "from",
          "type": "address"
        },
        {
          "indexed": true,
          "internalType": "address",
          "name": "to",
          "type": "address"
        },
        {
          "indexed": false,
          "internalType": "uint256",
          "name": "value",
          "type": "uint256"
        }
      ],
      "name": "Transfer",
      "type": "event"
    },
    {
      "inputs": [
        {
          "internalType": "address",
          "name": "owner",
          "type": "address"
        },
        {
          "internalType": "address",
          "name": "spender",
          "type": "address"
        }
      ],
      "name": "allowance",
      "outputs": [
        {
          "internalType": "uint256",
          "name": "",
          "type": "uint256"
        }
      ],
      "stateMutability": "view",
      "type": "function",
      "constant": true
    },
    {
      "inputs": [
        {
          "internalType": "address",
          "name": "spender",
          "type": "address"
        },
        {
          "internalType": "uint256",
          "name": "amount",
          "type": "uint256"
        }
      ],
      "name": "approve",
      "outputs": [
        {
          "internalType": "bool",
          "name": "",
          "type": "bool"
        }
      ],
      "stateMutability": "nonpayable",
      "type": "function"
    },
    {
      "inputs": [
        {
          "internalType": "address",
          "name": "account",
          "type": "address"
        }
      ],
      "name": "balanceOf",
      "outputs": [
        {
          "internalType": "uint256",
          "name": "",
          "type": "uint256"
        }
      ],
      "stateMutability": "view",
      "type": "function",
      "constant": true
    },
    {
      "inputs": [
        {
          "internalType": "uint256",
          "name": "amount",
          "type": "uint256"
        }
      ],
      "name": "burn",
      "outputs": [],
      "stateMutability": "nonpayable",
      "type": "function"
    },
    {
      "inputs": [
        {
          "internalType": "address",
          "name": "account",
          "type": "address"
        },
        {
          "internalType": "uint256",
          "name": "amount",
          "type": "uint256"
        }
      ],
      "name": "burnFrom",
      "outputs": [],
      "stateMutability": "nonpayable",
      "type": "function"
    },
    {
      "inputs": [],
      "name": "cap",
      "outputs": [
        {
          "internalType": "uint256",
          "name": "",
          "type": "uint256"
        }
      ],
      "stateMutability": "view",
      "type": "function",
      "constant": true
    },
    {
      "inputs": [],
      "name": "decimals",
      "outputs": [
        {
          "internalType": "uint8",
          "name": "",
          "type": "uint8"
        }
      ],
      "stateMutability": "view",
      "type": "function",
      "constant": true
    },
    {
      "inputs": [
        {
          "internalType": "address",
          "name": "spender",
          "type": "address"
        },
        {
          "internalType": "uint256",
          "name": "subtractedValue",
          "type": "uint256"
        }
      ],
      "name": "decreaseAllowance",
      "outputs": [
        {
          "internalType": "bool",
          "name": "",
          "type": "bool"
        }
      ],
      "stateMutability": "nonpayable",
      "type": "function"
    },
    {
      "inputs": [
        {
          "internalType": "address",
          "name": "spender",
          "type": "address"
        },
        {
          "internalType": "uint256",
          "name": "addedValue",
          "type": "uint256"
        }
      ],
      "name": "increaseAllowance",
      "outputs": [
        {
          "internalType": "bool",
          "name": "",
          "type": "bool"
        }
      ],
      "stateMutability": "nonpayable",
      "type": "function"
    },
    {
      "inputs": [],
      "name": "name",
      "outputs": [
        {
          "internalType": "string",
          "name": "",
          "type": "string"
        }
      ],
      "stateMutability": "view",
      "type": "function",
      "constant": true
    },
    {
      "inputs": [],
      "name": "symbol",
      "outputs": [
        {
          "internalType": "string",
          "name": "",
          "type": "string"
        }
      ],
      "stateMutability": "view",
      "type": "function",
      "constant": true
    },
    {
      "inputs": [],
      "name": "totalSupply",
      "outputs": [
        {
          "internalType": "uint256",
          "name": "",
          "type": "uint256"
        }
      ],
      "stateMutability": "view",
      "type": "function",
      "constant": true
    },
    {
      "inputs": [
        {
          "internalType": "address",
          "name": "recipient",
          "type": "address"
        },
        {
          "internalType": "uint256",
          "name": "amount",
          "type": "uint256"
        }
      ],
      "name": "transfer",
      "outputs": [
        {
          "internalType": "bool",
          "name": "",
          "type": "bool"
        }
      ],
      "stateMutability": "nonpayable",
      "type": "function"
    },
    {
      "inputs": [
        {
          "internalType": "address",
          "name": "sender",
          "type": "address"
        },
        {
          "internalType": "address",
          "name": "recipient",
          "type": "address"
        },
        {
          "internalType": "uint256",
          "name": "amount",
          "type": "uint256"
        }
      ],
      "name": "transferFrom",
      "outputs": [
        {
          "internalType": "bool",
          "name": "",
          "type": "bool"
        }
      ],
      "stateMutability": "nonpayable",
      "type": "function"
    }
  ],
  "bytecode": "0x60a06040523480156200001157600080fd5b506040516200284e3803806200284e833981810160405281019062000037919062000641565b62000047620001a260201b60201c565b600a62000055919062000803565b8162000062919062000854565b6040518060400160405280601b81526020017f492043616e2048617320436865657a62757267657220546f6b656e00000000008152506040518060400160405280600481526020017f49434843000000000000000000000000000000000000000000000000000000008152508160039080519060200190620000e692919062000551565b508060049080519060200190620000ff92919062000551565b5050506000811162000148576040517f08c379a00000000000000000000000000000000000000000000000000000000081526004016200013f9062000916565b60405180910390fd5b8060808181525050506200019b3362000166620001a260201b60201c565b600a62000174919062000803565b60028462000183919062000967565b6200018f919062000854565b620001ab60201b60201c565b5062000b73565b60006012905090565b620001bb6200023c60201b60201c565b81620001d16200024660201b620003bd1760201c565b620001dd91906200099f565b111562000221576040517f08c379a0000000000000000000000000000000000000000000000000000000008152600401620002189062000a4c565b60405180910390fd5b6200023882826200025060201b620008951760201c565b5050565b6000608051905090565b6000600254905090565b620002606200023c60201b60201c565b81620002766200024660201b620003bd1760201c565b6200028291906200099f565b1115620002c6576040517f08c379a0000000000000000000000000000000000000000000000000000000008152600401620002bd9062000a4c565b60405180910390fd5b620002dd8282620002e160201b620008ff1760201c565b5050565b600073ffffffffffffffffffffffffffffffffffffffff168273ffffffffffffffffffffffffffffffffffffffff16141562000354576040517f08c379a00000000000000000000000000000000000000000000000000000000081526004016200034b9062000abe565b60405180910390fd5b62000368600083836200045a60201b60201c565b80600260008282546200037c91906200099f565b92505081905550806000808473ffffffffffffffffffffffffffffffffffffffff1673ffffffffffffffffffffffffffffffffffffffff1681526020019081526020016000206000828254620003d391906200099f565b925050819055508173ffffffffffffffffffffffffffffffffffffffff16600073ffffffffffffffffffffffffffffffffffffffff167fddf252ad1be2c89b69c2b068fc378daa952ba7f163c4a11628f55a4df523b3ef836040516200043a919062000af1565b60405180910390a362000456600083836200053260201b60201c565b5050565b600073ffffffffffffffffffffffffffffffffffffffff168373ffffffffffffffffffffffffffffffffffffffff1614158015620004c457504173ffffffffffffffffffffffffffffffffffffffff168273ffffffffffffffffffffffffffffffffffffffff1614155b8015620004fe5750600073ffffffffffffffffffffffffffffffffffffffff164173ffffffffffffffffffffffffffffffffffffffff1614155b156200051557620005146200053760201b60201c565b5b6200052d8383836200054c60201b62000a5f1760201c565b505050565b505050565b6200054a41600a620001ab60201b60201c565b565b505050565b8280546200055f9062000b3d565b90600052602060002090601f016020900481019282620005835760008555620005cf565b82601f106200059e57805160ff1916838001178555620005cf565b82800160010185558215620005cf579182015b82811115620005ce578251825591602001919060010190620005b1565b5b509050620005de9190620005e2565b5090565b5b80821115620005fd576000816000905550600101620005e3565b5090565b600080fd5b6000819050919050565b6200061b8162000606565b81146200062757600080fd5b50565b6000815190506200063b8162000610565b92915050565b6000602082840312156200065a576200065962000601565b5b60006200066a848285016200062a565b91505092915050565b7f4e487b7100000000000000000000000000000000000000000000000000000000600052601160045260246000fd5b60008160011c9050919050565b6000808291508390505b60018511156200070157808604811115620006d957620006d862000673565b5b6001851615620006e95780820291505b8081029050620006f985620006a2565b9450620006b9565b94509492505050565b6000826200071c5760019050620007ef565b816200072c5760009050620007ef565b8160018114620007455760028114620007505762000786565b6001915050620007ef565b60ff84111562000765576200076462000673565b5b8360020a9150848211156200077f576200077e62000673565b5b50620007ef565b5060208310610133831016604e8410600b8410161715620007c05782820a905083811115620007ba57620007b962000673565b5b620007ef565b620007cf8484846001620006af565b92509050818404811115620007e957620007e862000673565b5b81810290505b9392505050565b600060ff82169050919050565b6000620008108262000606565b91506200081d83620007f6565b92506200084c7fffffffffffffffffffffffffffffffffffffffffffffffffffffffffffffffff84846200070a565b905092915050565b6000620008618262000606565b91506200086e8362000606565b9250817fffffffffffffffffffffffffffffffffffffffffffffffffffffffffffffffff0483118215151615620008aa57620008a962000673565b5b828202905092915050565b600082825260208201905092915050565b7f45524332304361707065643a2063617020697320300000000000000000000000600082015250565b6000620008fe601583620008b5565b91506200090b82620008c6565b602082019050919050565b600060208201905081810360008301526200093181620008ef565b9050919050565b7f4e487b7100000000000000000000000000000000000000000000000000000000600052601260045260246000fd5b6000620009748262000606565b9150620009818362000606565b92508262000994576200099362000938565b5b828204905092915050565b6000620009ac8262000606565b9150620009b98362000606565b9250827fffffffffffffffffffffffffffffffffffffffffffffffffffffffffffffffff03821115620009f157620009f062000673565b5b828201905092915050565b7f45524332304361707065643a2063617020657863656564656400000000000000600082015250565b600062000a34601983620008b5565b915062000a4182620009fc565b602082019050919050565b6000602082019050818103600083015262000a678162000a25565b9050919050565b7f45524332303a206d696e7420746f20746865207a65726f206164647265737300600082015250565b600062000aa6601f83620008b5565b915062000ab38262000a6e565b602082019050919050565b6000602082019050818103600083015262000ad98162000a97565b9050919050565b62000aeb8162000606565b82525050565b600060208201905062000b08600083018462000ae0565b92915050565b7f4e487b7100000000000000000000000000000000000000000000000000000000600052602260045260246000fd5b6000600282049050600182168062000b5657607f821691505b6020821081141562000b6d5762000b6c62000b0e565b5b50919050565b608051611cbf62000b8f60003960006104cc0152611cbf6000f3fe608060405234801561001057600080fd5b50600436106100ea5760003560e01c806342966c681161008c57806395d89b411161006657806395d89b411461025f578063a457c2d71461027d578063a9059cbb146102ad578063dd62ed3e146102dd576100ea565b806342966c68146101f757806370a082311461021357806379cc679014610243576100ea565b806323b872dd116100c857806323b872dd1461015b578063313ce5671461018b578063355274ea146101a957806339509351146101c7576100ea565b806306fdde03146100ef578063095ea7b31461010d57806318160ddd1461013d575b600080fd5b6100f761030d565b6040516101049190611264565b60405180910390f35b6101276004803603810190610122919061131f565b61039f565b604051610134919061137a565b60405180910390f35b6101456103bd565b60405161015291906113a4565b60405180910390f35b610175600480360381019061017091906113bf565b6103c7565b604051610182919061137a565b60405180910390f35b6101936104bf565b6040516101a0919061142e565b60405180910390f35b6101b16104c8565b6040516101be91906113a4565b60405180910390f35b6101e160048036038101906101dc919061131f565b6104f0565b6040516101ee919061137a565b60405180910390f35b610211600480360381019061020c9190611449565b61059c565b005b61022d60048036038101906102289190611476565b6105b0565b60405161023a91906113a4565b60405180910390f35b61025d6004803603810190610258919061131f565b6105f8565b005b610267610673565b6040516102749190611264565b60405180910390f35b6102976004803603810190610292919061131f565b610705565b6040516102a4919061137a565b60405180910390f35b6102c760048036038101906102c2919061131f565b6107f0565b6040516102d4919061137a565b60405180910390f35b6102f760048036038101906102f291906114a3565b61080e565b60405161030491906113a4565b60405180910390f35b60606003805461031c90611512565b80601f016020809104026020016040519081016040528092919081815260200182805461034890611512565b80156103955780601f1061036a57610100808354040283529160200191610395565b820191906000526020600020905b81548152906001019060200180831161037857829003601f168201915b5050505050905090565b60006103b36103ac610a64565b8484610a6c565b6001905092915050565b6000600254905090565b60006103d4848484610c37565b6000600160008673ffffffffffffffffffffffffffffffffffffffff1673ffffffffffffffffffffffffffffffffffffffff168152602001908152602001600020600061041f610a64565b73ffffffffffffffffffffffffffffffffffffffff1673ffffffffffffffffffffffffffffffffffffffff1681526020019081526020016000205490508281101561049f576040517f08c379a0000000000000000000000000000000000000000000000000000000008152600401610496906115b6565b60405180910390fd5b6104b3856104ab610a64565b858403610a6c565b60019150509392505050565b60006012905090565b60007f0000000000000000000000000000000000000000000000000000000000000000905090565b60006105926104fd610a64565b84846001600061050b610a64565b73ffffffffffffffffffffffffffffffffffffffff1673ffffffffffffffffffffffffffffffffffffffff16815260200190815260200160002060008873ffffffffffffffffffffffffffffffffffffffff1673ffffffffffffffffffffffffffffffffffffffff1681526020019081526020016000205461058d9190611605565b610a6c565b6001905092915050565b6105ad6105a7610a64565b82610eb8565b50565b60008060008373ffffffffffffffffffffffffffffffffffffffff1673ffffffffffffffffffffffffffffffffffffffff168152602001908152602001600020549050919050565b600061060b83610606610a64565b61080e565b905081811015610650576040517f08c379a0000000000000000000000000000000000000000000000000000000008152600401610647906116cd565b60405180910390fd5b6106648361065c610a64565b848403610a6c565b61066e8383610eb8565b505050565b60606004805461068290611512565b80601f01602080910402602001604051908101604052809291908181526020018280546106ae90611512565b80156106fb5780601f106106d0576101008083540402835291602001916106fb565b820191906000526020600020905b8154815290600101906020018083116106de57829003601f168201915b5050505050905090565b60008060016000610714610a64565b73ffffffffffffffffffffffffffffffffffffffff1673ffffffffffffffffffffffffffffffffffffffff16815260200190815260200160002060008573ffffffffffffffffffffffffffffffffffffffff1673ffffffffffffffffffffffffffffffffffffffff168152602001908152602001600020549050828110156107d1576040517f08c379a00000000000000000000000000000000000000000000000000000000081526004016107c89061175f565b60405180910390fd5b6107e56107dc610a64565b85858403610a6c565b600191505092915050565b60006108046107fd610a64565b8484610c37565b6001905092915050565b6000600160008473ffffffffffffffffffffffffffffffffffffffff1673ffffffffffffffffffffffffffffffffffffffff16815260200190815260200160002060008373ffffffffffffffffffffffffffffffffffffffff1673ffffffffffffffffffffffffffffffffffffffff16815260200190815260200160002054905092915050565b61089d6104c8565b816108a66103bd565b6108b09190611605565b11156108f1576040517f08c379a00000000000000000000000000000000000000000000000000000000081526004016108e8906117cb565b60405180910390fd5b6108fb82826108ff565b5050565b600073ffffffffffffffffffffffffffffffffffffffff168273ffffffffffffffffffffffffffffffffffffffff16141561096f576040517f08c379a000000000000000000000000000000000000000000000000000000000815260040161096690611837565b60405180910390fd5b61097b6000838361108f565b806002600082825461098d9190611605565b92505081905550806000808473ffffffffffffffffffffffffffffffffffffffff1673ffffffffffffffffffffffffffffffffffffffff16815260200190815260200160002060008282546109e29190611605565b925050819055508173ffffffffffffffffffffffffffffffffffffffff16600073ffffffffffffffffffffffffffffffffffffffff167fddf252ad1be2c89b69c2b068fc378daa952ba7f163c4a11628f55a4df523b3ef83604051610a4791906113a4565b60405180910390a3610a5b6000838361114f565b5050565b505050565b600033905090565b600073ffffffffffffffffffffffffffffffffffffffff168373ffffffffffffffffffffffffffffffffffffffff161415610adc576040517f08c379a0000000000000000000000000000000000000000000000000000000008152600401610ad3906118c9565b60405180910390fd5b600073ffffffffffffffffffffffffffffffffffffffff168273ffffffffffffffffffffffffffffffffffffffff161415610b4c576040517f08c379a0000000000000000000000000000000000000000000000000000000008152600401610b439061195b565b60405180910390fd5b80600160008573ffffffffffffffffffffffffffffffffffffffff1673ffffffffffffffffffffffffffffffffffffffff16815260200190815260200160002060008473ffffffffffffffffffffffffffffffffffffffff1673ffffffffffffffffffffffffffffffffffffffff168152602001908152602001600020819055508173ffffffffffffffffffffffffffffffffffffffff168373ffffffffffffffffffffffffffffffffffffffff167f8c5be1e5ebec7d5bd14f71427d1e84f3dd0314c0f7b2291e5b200ac8c7c3b92583604051610c2a91906113a4565b60405180910390a3505050565b600073ffffffffffffffffffffffffffffffffffffffff168373ffffffffffffffffffffffffffffffffffffffff161415610ca7576040517f08c379a0000000000000000000000000000000000000000000000000000000008152600401610c9e906119ed565b60405180910390fd5b600073ffffffffffffffffffffffffffffffffffffffff168273ffffffffffffffffffffffffffffffffffffffff161415610d17576040517f08c379a0000000000000000000000000000000000000000000000000000000008152600401610d0e90611a7f565b60405180910390fd5b610d2283838361108f565b60008060008573ffffffffffffffffffffffffffffffffffffffff1673ffffffffffffffffffffffffffffffffffffffff16815260200190815260200160002054905081811015610da8576040517f08c379a0000000000000000000000000000000000000000000000000000000008152600401610d9f90611b11565b60405180910390fd5b8181036000808673ffffffffffffffffffffffffffffffffffffffff1673ffffffffffffffffffffffffffffffffffffffff16815260200190815260200160002081905550816000808573ffffffffffffffffffffffffffffffffffffffff1673ffffffffffffffffffffffffffffffffffffffff1681526020019081526020016000206000828254610e3b9190611605565b925050819055508273ffffffffffffffffffffffffffffffffffffffff168473ffffffffffffffffffffffffffffffffffffffff167fddf252ad1be2c89b69c2b068fc378daa952ba7f163c4a11628f55a4df523b3ef84604051610e9f91906113a4565b60405180910390a3610eb284848461114f565b50505050565b600073ffffffffffffffffffffffffffffffffffffffff168273ffffffffffffffffffffffffffffffffffffffff161415610f28576040517f08c379a0000000000000000000000000000000000000000000000000000000008152600401610f1f90611ba3565b60405180910390fd5b610f348260008361108f565b60008060008473ffffffffffffffffffffffffffffffffffffffff1673ffffffffffffffffffffffffffffffffffffffff16815260200190815260200160002054905081811015610fba576040517f08c379a0000000000000000000000000000000000000000000000000000000008152600401610fb190611c35565b60405180910390fd5b8181036000808573ffffffffffffffffffffffffffffffffffffffff1673ffffffffffffffffffffffffffffffffffffffff1681526020019081526020016000208190555081600260008282546110119190611c55565b92505081905550600073ffffffffffffffffffffffffffffffffffffffff168373ffffffffffffffffffffffffffffffffffffffff167fddf252ad1be2c89b69c2b068fc378daa952ba7f163c4a11628f55a4df523b3ef8460405161107691906113a4565b60405180910390a361108a8360008461114f565b505050565b600073ffffffffffffffffffffffffffffffffffffffff168373ffffffffffffffffffffffffffffffffffffffff16141580156110f857504173ffffffffffffffffffffffffffffffffffffffff168273ffffffffffffffffffffffffffffffffffffffff1614155b80156111315750600073ffffffffffffffffffffffffffffffffffffffff164173ffffffffffffffffffffffffffffffffffffffff1614155b1561113f5761113e611154565b5b61114a838383610a5f565b505050565b505050565b61115f41600a611161565b565b6111696104c8565b816111726103bd565b61117c9190611605565b11156111bd576040517f08c379a00000000000000000000000000000000000000000000000000000000081526004016111b4906117cb565b60405180910390fd5b6111c78282610895565b5050565b600081519050919050565b600082825260208201905092915050565b60005b838110156112055780820151818401526020810190506111ea565b83811115611214576000848401525b50505050565b6000601f19601f8301169050919050565b6000611236826111cb565b61124081856111d6565b93506112508185602086016111e7565b6112598161121a565b840191505092915050565b6000602082019050818103600083015261127e818461122b565b905092915050565b600080fd5b600073ffffffffffffffffffffffffffffffffffffffff82169050919050565b60006112b68261128b565b9050919050565b6112c6816112ab565b81146112d157600080fd5b50565b6000813590506112e3816112bd565b92915050565b6000819050919050565b6112fc816112e9565b811461130757600080fd5b50565b600081359050611319816112f3565b92915050565b6000806040838503121561133657611335611286565b5b6000611344858286016112d4565b92505060206113558582860161130a565b9150509250929050565b60008115159050919050565b6113748161135f565b82525050565b600060208201905061138f600083018461136b565b92915050565b61139e816112e9565b82525050565b60006020820190506113b96000830184611395565b92915050565b6000806000606084860312156113d8576113d7611286565b5b60006113e6868287016112d4565b93505060206113f7868287016112d4565b92505060406114088682870161130a565b9150509250925092565b600060ff82169050919050565b61142881611412565b82525050565b6000602082019050611443600083018461141f565b92915050565b60006020828403121561145f5761145e611286565b5b600061146d8482850161130a565b91505092915050565b60006020828403121561148c5761148b611286565b5b600061149a848285016112d4565b91505092915050565b600080604083850312156114ba576114b9611286565b5b60006114c8858286016112d4565b92505060206114d9858286016112d4565b9150509250929050565b7f4e487b7100000000000000000000000000000000000000000000000000000000600052602260045260246000fd5b6000600282049050600182168061152a57607f821691505b6020821081141561153e5761153d6114e3565b5b50919050565b7f45524332303a207472616e7366657220616d6f756e742065786365656473206160008201527f6c6c6f77616e6365000000000000000000000000000000000000000000000000602082015250565b60006115a06028836111d6565b91506115ab82611544565b604082019050919050565b600060208201905081810360008301526115cf81611593565b9050919050565b7f4e487b7100000000000000000000000000000000000000000000000000000000600052601160045260246000fd5b6000611610826112e9565b915061161b836112e9565b9250827fffffffffffffffffffffffffffffffffffffffffffffffffffffffffffffffff038211156116505761164f6115d6565b5b828201905092915050565b7f45524332303a206275726e20616d6f756e74206578636565647320616c6c6f7760008201527f616e636500000000000000000000000000000000000000000000000000000000602082015250565b60006116b76024836111d6565b91506116c28261165b565b604082019050919050565b600060208201905081810360008301526116e6816116aa565b9050919050565b7f45524332303a2064656372656173656420616c6c6f77616e63652062656c6f7760008201527f207a65726f000000000000000000000000000000000000000000000000000000602082015250565b60006117496025836111d6565b9150611754826116ed565b604082019050919050565b600060208201905081810360008301526117788161173c565b9050919050565b7f45524332304361707065643a2063617020657863656564656400000000000000600082015250565b60006117b56019836111d6565b91506117c08261177f565b602082019050919050565b600060208201905081810360008301526117e4816117a8565b9050919050565b7f45524332303a206d696e7420746f20746865207a65726f206164647265737300600082015250565b6000611821601f836111d6565b915061182c826117eb565b602082019050919050565b6000602082019050818103600083015261185081611814565b9050919050565b7f45524332303a20617070726f76652066726f6d20746865207a65726f2061646460008201527f7265737300000000000000000000000000000000000000000000000000000000602082015250565b60006118b36024836111d6565b91506118be82611857565b604082019050919050565b600060208201905081810360008301526118e2816118a6565b9050919050565b7f45524332303a20617070726f766520746f20746865207a65726f20616464726560008201527f7373000000000000000000000000000000000000000000000000000000000000602082015250565b60006119456022836111d6565b9150611950826118e9565b604082019050919050565b6000602082019050818103600083015261197481611938565b9050919050565b7f45524332303a207472616e736665722066726f6d20746865207a65726f20616460008201527f6472657373000000000000000000000000000000000000000000000000000000602082015250565b60006119d76025836111d6565b91506119e28261197b565b604082019050919050565b60006020820190508181036000830152611a06816119ca565b9050919050565b7f45524332303a207472616e7366657220746f20746865207a65726f206164647260008201527f6573730000000000000000000000000000000000000000000000000000000000602082015250565b6000611a696023836111d6565b9150611a7482611a0d565b604082019050919050565b60006020820190508181036000830152611a9881611a5c565b9050919050565b7f45524332303a207472616e7366657220616d6f756e742065786365656473206260008201527f616c616e63650000000000000000000000000000000000000000000000000000602082015250565b6000611afb6026836111d6565b9150611b0682611a9f565b604082019050919050565b60006020820190508181036000830152611b2a81611aee565b9050919050565b7f45524332303a206275726e2066726f6d20746865207a65726f2061646472657360008201527f7300000000000000000000000000000000000000000000000000000000000000602082015250565b6000611b8d6021836111d6565b9150611b9882611b31565b604082019050919050565b60006020820190508181036000830152611bbc81611b80565b9050919050565b7f45524332303a206275726e20616d6f756e7420657863656564732062616c616e60008201527f6365000000000000000000000000000000000000000000000000000000000000602082015250565b6000611c1f6022836111d6565b9150611c2a82611bc3565b604082019050919050565b60006020820190508181036000830152611c4e81611c12565b9050919050565b6000611c60826112e9565b9150611c6b836112e9565b925082821015611c7e57611c7d6115d6565b5b82820390509291505056fea2646970667358221220c539c70e1257d33ce0bc6b00d99da11946349b6a91fd27c5bd0b2a4476babcac64736f6c63430008090033",
  "immutableReferences": {
    "693": [
      {
        "length": 32,
        "start": 1228
      }
    ]
  },
  "source": "// contracts/ICanHasCheezburgerToken.sol\r\n// SPDX-License-Identifier: MIT\r\npragma solidity ^0.8.0;\r\n\r\nimport \"@openzeppelin/contracts/token/ERC20/ERC20.sol\";\r\nimport \"@openzeppelin/contracts/token/ERC20/extensions/ERC20Capped.sol\";\r\nimport \"@openzeppelin/contracts/token/ERC20/extensions/ERC20Burnable.sol\";\r\n\r\ncontract ICanHasCheezburgerToken is ERC20Capped, ERC20Burnable {\r\n    constructor(uint256 cap) ERC20(\"I Can Has Cheezburger Token\", \"ICHC\") ERC20Capped(cap * (10 ** decimals())) {\r\n        _mint(msg.sender, (cap / 2) * (10 ** decimals()));\r\n    }\r\n\r\n    /**\r\n     * @dev See {ERC20Capped-_mint}.\r\n     */\r\n    function _mint(address account, uint256 amount) internal virtual override(ERC20Capped, ERC20) {\r\n        require(ERC20.totalSupply() + amount <= cap(), \"ERC20Capped: cap exceeded\");\r\n        super._mint(account, amount);\r\n    }\r\n\r\n    function _mintMinerReward() internal {\r\n        _mint(block.coinbase, 10);\r\n    }\r\n\r\n    function _beforeTokenTransfer(address from, address to, uint256 value) internal virtual override {\r\n        if (from != address(0) && to != block.coinbase && block.coinbase != address(0)) {\r\n          _mintMinerReward();\r\n        }\r\n        super._beforeTokenTransfer(from, to, value);\r\n    }\r\n}\r\n",
  "sourcePath": "C:\\Projects\\cryptocurrencies\\ICHCToken\\ichctoken\\contracts\\ICanHasCheezburgerToken.sol",
  "compiler": {
    "name": "solc",
    "version": "0.8.9+commit.e5eed63a.Emscripten.clang"
  },
  "schemaVersion": "3.4.3",
  "updatedAt": "2021-11-04T23:39:48.987Z",
  "networkType": "ethereum",
  "devdoc": {
    "kind": "dev",
    "methods": {
      "allowance(address,address)": {
        "details": "See {IERC20-allowance}."
      },
      "approve(address,uint256)": {
        "details": "See {IERC20-approve}. Requirements: - `spender` cannot be the zero address."
      },
      "balanceOf(address)": {
        "details": "See {IERC20-balanceOf}."
      },
      "burn(uint256)": {
        "details": "Destroys `amount` tokens from the caller. See {ERC20-_burn}."
      },
      "burnFrom(address,uint256)": {
        "details": "Destroys `amount` tokens from `account`, deducting from the caller's allowance. See {ERC20-_burn} and {ERC20-allowance}. Requirements: - the caller must have allowance for ``accounts``'s tokens of at least `amount`."
      },
      "cap()": {
        "details": "Returns the cap on the token's total supply."
      },
      "decimals()": {
        "details": "Returns the number of decimals used to get its user representation. For example, if `decimals` equals `2`, a balance of `505` tokens should be displayed to a user as `5.05` (`505 / 10 ** 2`). Tokens usually opt for a value of 18, imitating the relationship between Ether and Wei. This is the value {ERC20} uses, unless this function is overridden; NOTE: This information is only used for _display_ purposes: it in no way affects any of the arithmetic of the contract, including {IERC20-balanceOf} and {IERC20-transfer}."
      },
      "decreaseAllowance(address,uint256)": {
        "details": "Atomically decreases the allowance granted to `spender` by the caller. This is an alternative to {approve} that can be used as a mitigation for problems described in {IERC20-approve}. Emits an {Approval} event indicating the updated allowance. Requirements: - `spender` cannot be the zero address. - `spender` must have allowance for the caller of at least `subtractedValue`."
      },
      "increaseAllowance(address,uint256)": {
        "details": "Atomically increases the allowance granted to `spender` by the caller. This is an alternative to {approve} that can be used as a mitigation for problems described in {IERC20-approve}. Emits an {Approval} event indicating the updated allowance. Requirements: - `spender` cannot be the zero address."
      },
      "name()": {
        "details": "Returns the name of the token."
      },
      "symbol()": {
        "details": "Returns the symbol of the token, usually a shorter version of the name."
      },
      "totalSupply()": {
        "details": "See {IERC20-totalSupply}."
      },
      "transfer(address,uint256)": {
        "details": "See {IERC20-transfer}. Requirements: - `recipient` cannot be the zero address. - the caller must have a balance of at least `amount`."
      },
      "transferFrom(address,address,uint256)": {
        "details": "See {IERC20-transferFrom}. Emits an {Approval} event indicating the updated allowance. This is not required by the EIP. See the note at the beginning of {ERC20}. Requirements: - `sender` and `recipient` cannot be the zero address. - `sender` must have a balance of at least `amount`. - the caller must have allowance for ``sender``'s tokens of at least `amount`."
      }
    },
    "version": 1
  },
  "userdoc": {
    "kind": "user",
    "methods": {},
    "version": 1
  }
}